:020000040800F2
:10000000080A00203D02000867420008213F00085E
:10001000654200080B2A0008D54F000800000000C8
:10002000000000000000000000000000394C000843
:10003000552A0008000000005D4B00083B4C0008FA
:10004000570200085702000857020008570200082C
:10005000570200085702000857020008570200081C
:10006000570200085702000857020008570200080C
:1000700057020008570200085702000857020008FC
:1000800057020008570200085702000857020008EC
:100090005702000857020008570200087D2A00088E
:1000A00057020008570200085702000857020008CC
:1000B0009D4C00085702000857020008570200082C
:1000C00057020008570200085702000857020008AC
:1000D000570200085702000857020008C94F0008DD
:1000E000672A0008570200085702000800F002F8CB
:1000F00000F094F80AA090E8000C82448344AAF12E
:100100000107DA4501D100F089F8AFF2090EBAE82B
:100110000F0013F0010F18BFFB1A43F0010318473B
:10012000D47C0000F47C0000103A24BF78C878C169
:10013000FAD8520724BF30C830C144BF04680C60ED
:10014000704700000023002400250026103A28BF35
:1001500078C1FBD8520728BF30C148BF0B60704739
:100160006E2900F04F84702900F0BF87662906F0E1
:10017000A387652906F0A087672906F09D87612976
:10018000AFF3008003681B0A28BF41F08001692992
:1001900000F0FC83642900F0F983752900F0F683F0
:1001A0006F2900F04C87782900F08B87E92900F04F
:1001B000E786E42900F0E486F52900F0E186EF29DE
:1001C00000F04987F82900F08A870368DB0928BF17
:1001D00041F08001632900F06886732900F06D8684
:1001E000E32901F04781F32901F04C810020704799
:1001F0001FB59DE8030000F059FB01F02BF8040047
:100200000020002106F0F8FD401C60600020002165
:1002100006F0DCFDE0601FBD10B510BD01F06FFA07
:100220001146FFF7E5FF06F05BF901F017FD03B497
:10023000FFF7F2FF03BC00F013FB00000948804702
:1002400009480047FEE7FEE7FEE7FEE7FEE7FEE7B8
:10025000FEE7FEE7FEE7FEE704480549054A064BD0
:10026000704700009B4C0008ED00000808040020C7
:10027000080A0020080600200806002000487047F1
:10028000A803002070B5064600F0F4FA056806F1F0
:100290000B0020F00704B4429CBF002070BD2B4629
:1002A0006A68BAB11068A04210D304F1080188420C
:1002B0003CBF5068586007D35168101941601168FD
:1002C000091B016058601460101D70BD1346526810
:1002D000002AE7D12146284600F0D4FA0028DED1D2
:1002E00070BD70B50446051F00F0C4FA0068002C0C
:1002F00014BF446870BD002C18BFAC423CBF204600
:100300006468F8D301680A18AA4218BF456003D18F
:100310002A6805461144016028684119A1421CBFA2
:100320006C6070BD6168696021680844286070BDB8
:100330007CB51D4616460C00009001D02044401E9E
:10034000074B7B442A4669460190304600F083FD06
:1003500005461CB10020694600F090FD28467CBD92
:10036000410B00000FB41CB5084B06AA7B4469463C
:100370000090059800F06FFD04460020694600F0EB
:100380007DFD20461CBC5DF814FB00000D0B000039
:100390000FB47CB50C0009AA009001D02044401E87
:1003A000084B7B4469460190089800F054FD0546CF
:1003B0001CB10020694600F061FD28467CBC5DF858
:1003C00014FB0000E10A000070B50C460546012A46
:1003D00005D02878800600D5EA69002302E00123D1
:1003E00005E05B1C934202D2E05C0028F9D1A869C9
:1003F000E618C01AA861286A18442862284600F046
:100400008BFA04E0D5E9012114F8010B9047B442BE
:10041000F8D3284600F096FA70BD00002DE9F05F91
:10042000894604464FF0000ADFF874B1FB44C0F877
:1004300020A02046E1688847002874D0252806D0EF
:10044000D4E901219047206A401C2062F1E7002690
:100450005F462046E16888472028054607DB312DA6
:1004600005D2781910F8200C08B10643F1E7B0075F
:1004700001D526F00406C4F81CA00027C4F818A073
:100480002A2D09D0284604F042FF38B304EB870830
:10049000303DC8F8185019E059F8041B204604EB09
:1004A00087029161E1688847012F054618D1E0690C
:1004B000002820DA26F020061DE0D8F8180000EB0E
:1004C000800005EB40003038C8F818002046E1688D
:1004D0008847054604F01BFF0028EED1012F0AD003
:1004E0002E2D08D12046E16888477F1C0546022F43
:1004F00046F02006C4DBA069002803DA404246F03B
:100500000106A061F00701D026F010066C2D0BD07B
:10051000682D09D04C2D39D06A2D35D0742D35D0A9
:100520007A2D33D016E038E0E1682F462046884720
:10053000B842054609D16C2F26D04FF48060E1689F
:10054000064320468847054604E06C2F1AD04FF436
:10055000807006430DB3A5F14100192802D820355B
:1005600046F400664A462946204626604E46FFF776
:10057000F7FD80B101280BD0F61D26F0070000F131
:10058000080956E74020E4E78020D8E70020D6E7B6
:1005900006F104094DE7284652E7206ABDE8F09FBE
:1005A0009C78000000F0FEBD10B5002000F042FE77
:1005B000FFF732FEBDE81040012000F051B940EADB
:1005C0000103024630B59B0710D14FF0013400E023
:1005D00008C208C91D1B9D4315EAC41FF8D013F0BB
:1005E000FF0102F8011B0DD01B0AF8E711F8013BCF
:1005F000002B02F8013B05D011F8013B002B02F85B
:10060000013BF3D130BD10B5431C02E010F8011BD3
:1006100071B18107FAD14FF0013202C88C1A8C43B4
:1006200014EAC211F9D0C01A0A0603D0C01E10BDC8
:10063000C01A10BD0A0401D0801E10BD0902FCD0F2
:10064000401E10BDCBB22AB101788B4203D0401CB2
:10065000521EF9D100207047032A40F2308010F07A
:10066000030C00F0158011F8013BBCF1020F62444D
:1006700098BF11F801CB00F8013B38BF11F8013BDE
:10068000A2F1040298BF00F801CB38BF00F8013B8B
:1006900011F0030300F02580083AC0F0088051F8FB
:1006A000043B083A51F804CBA0E80810F5E7121D06
:1006B0005CBF51F8043B40F8043BAFF30080D20725
:1006C00024BF11F8013B11F801CB48BF11F8012BF1
:1006D00024BF00F8013B00F801CB48BF00F8012B14
:1006E000704710B5203AC0F00B80B1E81850203A9E
:1006F000A0E81850B1E81850A0E81850BFF4F5AFC2
:100700005FEA027C24BFB1E81850A0E8185044BF4B
:1007100018C918C0BDE810405FEA827C24BF51F8B8
:10072000043B40F8043B08BF7047D20728BF31F8AC
:10073000023B48BF11F8012B28BF20F8023B48BFFD
:1007400000F8012B70474FF000020429C0F012801E
:1007500010F0030C00F01B80CCF1040CBCF1020F74
:1007600018BF00F8012BA8BF20F8022BA1EB0C0149
:1007700000F00DB85FEAC17C24BF00F8012B00F83F
:10078000012B48BF00F8012B70474FF0000200B565
:10079000134694469646203922BFA0E80C50A0E8A4
:1007A0000C50B1F12001BFF4F7AF090728BFA0E852
:1007B0000C5048BF0CC05DF804EB890028BF40F81E
:1007C000042B08BF704748BF20F8022B11F0804F60
:1007D00018BF00F8012B70474FF0013C50F8042B74
:1007E00051F8043B9A4221D1A2EB0C03934313EA44
:1007F000CC1317D150F8042B51F8043B9A4215D171
:10080000A2EB0C03934313EACC130BD150F8042B47
:1008100051F8043B9A4209D1A2EB0C03934313EA2B
:10082000CC13DBD04FF00000704700BFD01A01BAE4
:10083000B1FA81F101F0180122FA01F0CB40C1F1C7
:100840002001DBB2C0B2C01A2CFA01F3D11A9143D5
:1008500011EAC311E6D17047704770477047000036
:1008600001491820ABBEFEE7260002000048704791
:10087000A803002000487047B0030020704770476D
:100880007047704738B504460A4600206946AFF302
:100890000080002808BF38BD02460099204600F0BD
:1008A000DDFC012038BD012000F022BFF8B5AFF318
:1008B0000080054600200C46102000BF0646A819FF
:1008C000A0420DD9324669460020AFF300800700F0
:1008D00008BF00F00DFF0098A04218BF0546C419DC
:1008E000FFF7C8FF05600746F01D20F00700461916
:1008F000284600F00AF8B44208BFF8BDA21B3146F2
:100900003868BDE8F84000F0A9BC00210160C0E9EA
:10091000011070471020704770B504468569006863
:10092000C10601D5302600E02026C00707D070BDE3
:10093000D4E9012130469047206A401C20626D1E98
:10094000F6D570BD70B5044685690078C00707D13B
:1009500070BDD4E9012120209047206A401C20620C
:100960006D1EF6D570BD09684A0501D540B27047C5
:10097000C905FCD500B2704709684A0501D5C0B267
:100980007047C905FCD580B2704700002DE9F041E1
:100990000646002410687529314616A510D0FFF7C9
:1009A000E2FF002802DA404213A507E031688A0717
:1009B00001D512A502E0490704D511A5012401E0E3
:1009C000FFF7DAFF00210A2206F1240709E0B0FB55
:1009D000F2FCB0FBF2F302FB1C00303078541846F6
:1009E000491C0028F3D123462A463046BDE8F04191
:1009F00000F09CBC000000002D0000002B00000057
:100A00002000000011680268006A530501D50870D3
:100A10000AE0D30501D5088006E0130603D5C21706
:100A2000C1E9000200E008600120704770472DE92D
:100A3000FF4F0C461E464FF0FF378BB0D2E9000146
:100A4000DDF860800A908A46C1F30A5505B93D4633
:100A5000002108464FF00000BAF1000F00F44000FA
:100A600005DA00EB80004FF4400101EA50004FEA44
:100A70009059B9F1010F00DDB9460A9850EA4A00D1
:100A80000ED044F61050A5F2FF3545432F14B8F1AF
:100A9000000F1ED07542291E1EDDC9F100021CE0A8
:100AA000B8F1010F4FF0000001D0302103E0F24314
:100AB00005E02154401CB042FBDB304600220021FF
:100AC00021540B99C1F80880C1E900200FB0BDE89E
:100AD000F08FBD1B6D1CDEE74A4600DA694206A8AE
:100AE00000F056FD06AB93E8070003AB83E8070070
:100AF00050460A9901F04BFB8DE80700A0F5005025
:100B00001F3800900398002D0ADD42F21F014A466B
:100B10000844002303A90390684601F0F7FD09E0AB
:100B2000A0F500504A461F38002303A903906846E9
:100B300001F016FE8DE807000004000C03D04FF012
:100B4000FF30410800E01046B8F1000F03D000224A
:100B5000009215461EE0751E05D400F099FB303258
:100B600062556D1EF9D5B3460122084302D000221A
:100B70007F1C04E02078302801D100227F1E002A4B
:100B8000099784D01DE0112D07DA00F081FB303287
:100B900062556D1C50EA0102F5D1084302D000985D
:100BA000C8B10EE00021681E05E0235C625C63545E
:100BB0002254401E491C8142F7DBAB46A81B401E55
:100BC0000990002004F80B000B98099AC0F80880DF
:100BD000C0E9002B7AE711264FF0000857E72DE90E
:100BE000F04F88460446D21D22F0070191B0D1E9AA
:100BF0000001CDE90A0104F0CDFA02460B98C00FBE
:100C000001D02D2007E02068810701D52B2002E0CC
:100C1000202101EAC000032A099001D0072A05DB40
:100C200003464146204600F0DBFB0BE120788006BE
:100C300001D5E06900E00620B8F1650F814606D0D5
:100C4000B8F1660F18D0B8F1670F70D131E000200D
:100C5000B9F1110F009001DB112301E009F101034B
:100C60000AAA01A90CA8FFF7E2FEDDE90C70002634
:100C700009F10105834647E001204B4600904FF003
:100C800000470AAA01A90CA8FFF7D1FEDDE90DB0C3
:100C90000C995D46002610B909F101000D18B9EB59
:100CA000050003D4C0F1FF3609F10105A5EB0900E9
:100CB0002BE0B9F1010F01DA4FF001090020B9F181
:100CC000110F0090484601DD112300E003460AAAF7
:100CD00001A90CA8FFF7ABFEDDE90C704D4600261C
:100CE0008346207800070AD4AB4500DA5D4601A8A8
:100CF000012D04DD411911F8011C302907D04F45A1
:100D000002DA17F1040F04DA012082460FE06D1EAB
:100D1000EEE7002F02DCED1B3E4403E0781CA84206
:100D200000DD7D1CB81B00F1010A4FF00047207860
:100D3000000703D4AA4501DB4FF0FF3A0021B7F1C9
:100D4000004F0DF143088DF8431024D002202B23CF
:100D5000002F01DA7F422D230A21021EA0F101009B
:100D600000DC5FB197FBF1FC97FBF1F201FB1C7C0F
:100D700017460CF1300C08F801CDEEE7A8F10100A0
:100D800003702188090501D5452100E06521A0F106
:100D9000010800F8011C09980FA9A1EB0807FF1D25
:100DA00000B10120411901EBEA70A1693844081A29
:100DB000401EA0612078C00602D42046FFF7ACFD9B
:100DC000099828B1D4E901219047206A401C20628B
:100DD0002078C00622D52046FFF79EFD1EE0002E9B
:100DE00004DBB34502DD01A8805D00E03020D4E9DA
:100DF00001219047206A401C2062761CAAF1010064
:100E00005FEA000A0AD100F025FAC0680168405C78
:100E1000D4E901219047206A401C2062281EA5F1D8
:100E20000105DCDC07E0D4E9012118F8010B90474B
:100E3000206A401C2062381EA7F10107F3DC20461F
:100E4000FFF780FD032011B041E6000001694A1C54
:100E500002610878704700B58FB0CDE901310021FB
:100E6000059105497944CDE9031011466846FFF71D
:100E7000D5FA0FB000BD0000E5FFFFFF0A6802F8D9
:100E8000010B0A607047D1E900239A4202D2531C39
:100E90000B601070704710B5436913B1AFF3008059
:100EA00001E0FFF791FA012010BD127800F1240152
:100EB0000A7000224A700122EDE711684FF0FF32FC
:100EC000E9E700002DE9FF5F15468A460446DFF892
:100ED000AC80F8440027D8E900103E46CDE9001068
:100EE00010E03AF816106A4602A800F0C3FB411C55
:100EF00007D02178890603D5E269391891420DD8C7
:100F00000744761C2078800602D5E069B84205DDEA
:100F1000AE42E6DB3AF816000028E2D1A069C01B19
:100F2000A0612046FFF7F8FCD8E90010CDE90010D9
:100F3000002017E03AF818106A4602A800F09AFB61
:100F4000B0F1FF3F81460BD000250DF1080B05E005
:100F5000D4E901211BF8050090476D1C4D45F7D3DE
:100F600008F10100B0428046E4DB206A3844206288
:100F70002046FFF7E7FCBDE8FF9F00000A6E000077
:100F80002DE9F0418046D21D22F007020025D2E96A
:100F90000002F52915A614D0011E72F1000106DA2F
:100FA0000023D0EB030063EB020211A608E0D8F89F
:100FB00000108B0701D50FA602E0490701D50EA648
:100FC00001251146002408F1240704E000F060F92F
:100FD00030323A55641C50EA0102F7D12B463246B2
:100FE00021464046BDE8F04100F0A0B900000000F5
:100FF0002D0000002B0000002000000030B4002174
:1010000000F1240408E002F00705D208303542EA76
:101010004372DB086554491C52EA0305F3D10468A6
:10102000002310A2250707D5A40600D421B1C46966
:1010300001230DA2641EC46130BC00F077B910B565
:10104000044621461068FFF797FC02462046BDE89B
:1010500010400023D2E7D21D22F00701D1E900237E
:10106000CCE700000000000030000000F0B40D46A6
:101070000188090502D5214C7C4402E01F4C7C44C8
:101080000E34002100F1240608E002F00F071209D7
:10109000E75D42EA03721B097754491C52EA0307D1
:1010A000F3D102780023120704D5702D06D009B1C0
:1010B000022311342246F0BC00F038B90123103469
:1010C000F8E770B504460D4621461068FFF754FC5A
:1010D000024629462046BDE870400023C6E7D21DDF
:1010E00022F00703D3E90023C0E70368126843F046
:1010F000200303600823C3610023B7E76C6C000082
:101100000FB4002300B589B00CA900910B99CB60F6
:10111000214B7B440693214B7B44079304236FF0C0
:101120000042CDE901321E4A7A446B4608920246DB
:10113000002006F023F809B05DF814FB70B50646F0
:101140004FF0FF3015460C46324686B00091CDE98F
:10115000010169460020049004A8FFF7D1FF024670
:101160000498211825B108B1084600E020462860FF
:10117000049800280DD0002A02DD0098884208D08B
:101180003246081B69460094CDE9010404A8FFF724
:10119000B7FF06B070BD0000770300008F030000AA
:1011A000EF0100002DE9F04791460E4680460446C7
:1011B000002514F8017B2FB100F044F80068C05DF1
:1011C000C007F6D12B2F02D02D2F1ED0641E4A4609
:1011D0003146204600F07AF926B13268A24201D1A8
:1011E000C6F800804FF002046A0518D50023D0EB42
:1011F000030563EB01025D1B934109DB0023D0EB88
:10120000030063EB0101BDE8F08745F48065DEE78C
:10121000FFF734F8046000204FF00041F3E7021EAE
:1012200071F10002EFDAFFF729F804604FF0FF30A8
:101230004108E8E710B500F043FABDE8104000F0BF
:1012400039BA704710B500F005F8001D10BD00BF99
:10125000A95B000000487047C803002003464068AF
:101260008C46002818BF88423CBF03464068F8D32C
:1012700018681844884207D00CF1030020F00700DA
:10128000001D411A521A0146081D0A60FFF729B8CD
:1012900030B5B0F10A024FEA900E71F100034EEA48
:1012A000817EB0EB0E0061EB91014FEA101E4EEA19
:1012B000017E10EB0E0041EB11114FEA102E4EEAA9
:1012C000016E10EB0E0041EB11214FEA104E4EEA79
:1012D000014E10EB0E0041EB1141401841F10001AD
:1012E0004FEAD00040EA41704FEAD10110EB80058F
:1012F0004FEA810444EA907444EB01046D1944EB15
:101300000404521BA3414FF0000348BF0A3200D52A
:1013100030BD401C41F1000130BD10B50446FFF75F
:1013200091FF0068005D00F0010010BD2DE9F0475D
:101330000D4699469246044600F124080168880645
:1013400004D5E06921F01001216000E00120A842ED
:1013500001DD471B00E00027A1697A1902EB0900B3
:10136000081AA0612078C00602D42046FFF7D4FAFC
:10137000002608E0D4E901211AF806009047206A07
:10138000401C761C20624E45F4DB2078C0060AD54E
:101390002046FFF7C1FA06E0D4E90121302090474A
:1013A000206A401C2062381EA7F10107F4DC07E028
:1013B000D4E9012118F805009047206A401C2062FA
:1013C000281EA5F10105F3DC2046FFF7BBFA2078C3
:1013D000000602D50220BDE8F0870120FBE70000EF
:1013E0002DE9F0411F46044603260168072A01F44F
:1013F000006004DB08B116A505E016A503E008B1FE
:1014000015A500E015A521F010002060A069C01E00
:10141000A0610FB1401EA0612046FFF77DFA4FB1D9
:10142000D4E9012138469047206A401C2062C01C44
:10143000206206E0206AFAE7D4E9012115F8010BE1
:101440009047761EF8D22046FFF77CFABDE8F0817F
:101450004E414E006E616E00494E4600696E660058
:1014600010B5436913B1AFF3008001E0FFF72AFD27
:10147000012010BD128800F1240182840022C28460
:101480000122EDE711684FF0FF32E9E7426842B10F
:10149000016811F8013B23B1521EC0E90012184641
:1014A00070470121C160881E704742685AB1C36805
:1014B000016843B983688B4205D0491E521CC0E9BC
:1014C0000012002070474FF0FF3070472DE9F74FB2
:1014D0004FF000091546CA46009C14F8010B30284D
:1014E00001D0ADB115E014F8010B4FF001097828D7
:1014F00003D0582801D04DB10BE00DB1102D08D10B
:101500004FF0000914F8010B102502E0082500E057
:101510000A2500274FEAE57B3E46B84616E0A5FBC4
:1015200007234FF0010905FB08000BFB07311FFAE9
:1015300080F805FB0616010C571846F10006381E08
:1015400076F5803000D3CA4614F8010B294600F026
:10155000FBF80028E3DA019838B1B9F1000F01D0A7
:10156000641E00E0009C01980460BAF1000F08D0EE
:10157000FEF784FE02210160C81E014603B0BDE8EB
:10158000F08F310441EA174148EA0740F6E70000CE
:101590002DE9F047814616468AB0354878440DC893
:1015A0008DE80D0032487844801C03AC0DC884E8F7
:1015B0000D0041F69B300844372190FBF1F290FB7F
:1015C000F1F5A5F1800501FB12041B3C02D5644234
:1015D000012000E00020DFF898A080460027FA44B0
:1015E000AAF1BE0A0EE0E0070AD03246684607EBD1
:1015F000470101230AEB810101F0B2F88DE80700F1
:1016000064107F1C002CEED1194F7F44AE3F19E0CF
:10161000E80715D007EB04100DF1180A90E80E004A
:101620008AE80E00C068F04201D19819089032464D
:10163000012306A903A801F093F803AB83E8070090
:101640006D10641C002DE3D14FF001033246694652
:10165000B8F1000F03A802D001F058F801E001F042
:101660007FF8C9E90001C9F808200AB0BDE8F08791
:10167000EC67000070B516460C460546FFF7E2FD24
:10168000036893F80101012806D0FF2C0FD8185DDC
:1016900068B101202C7070BDD3F807013246214695
:1016A00003F2071303442846BDE8704018474FF083
:1016B000FF3070BD002801D0FFF7D2B8704700009E
:1016C00010B5002102A000F0D2FA012010BD0000E8
:1016D000534947414252543A2041626E6F726D61E4
:1016E0006C207465726D696E6174696F6E000000C4
:1016F00010B500F0D5FABDE81040FFF7DBBF754626
:10170000FFF7B4F8AE4605006946534620F00700DF
:10171000854618B020B5FEF79FFDBDE820404FF08C
:1017200000064FF000074FF000084FF0000B21F0CB
:101730000701AC46ACE8C009ACE8C009ACE8C00998
:10174000ACE8C0098D4670473A2800D2303820F006
:101750002002412A01D3A2F13700884201D34FF081
:10176000FF3070472DE9FF4F06468BB00878FF2801
:1017700006D0491C2D2805D000244FF0000908E0B0
:1017800000200CE00124F8E709EB8903491C00EB79
:1017900043090878FF28F7D114B1C9F10000814648
:1017A000107800252C46AA4629462D2801D02B2842
:1017B00004D1521C2D2813D0002082468B4610786D
:1017C000FF280FD04FF0000C0A21521CA5FB017816
:1017D00004FB018105FB0C11C5194BEB0104EEE77D
:1017E0000120EAE7002108464FF00000BAF1000F9F
:1017F00002D000EB80004008C0F38157012F01DDCB
:101800004FF0FF370E9955EA040009EB01080BD0A1
:101810004FF0020918F5FA7F16DA4FEACA70002F66
:10182000706008DD012007E04FEACA70C6E900B029
:101830000FB0BDE8F08F00203060FEF71FFDC0F84C
:1018400000901821084616E0B8F5FA7F18DD002F41
:1018500002DAF748784401E0F6487844D0E900100D
:10186000C6E9001040EACA707060FEF707FDC0F8D4
:101870000090142108460FB0BDE8F04F05F019BCE8
:10188000002108464FF00000B8F10001099002DA8B
:10189000C7F1000200E03A4601DAC8F1000106A8EB
:1018A000FFF776FE06AB93E8070003AB83E807007B
:1018B00044F23E005BEA04010090584604D144F231
:1018C0001E012C465D460091210C0904014306D1FE
:1018D0000099240444EA15442D041039009104F0C1
:1018E0007F41014306D10099240244EA15642D0288
:1018F0000839009104F07041014306D10099240198
:1019000044EA15742D01091F009104F04041014380
:1019100006D10099A40044EA9574AD00891E009197
:1019200004F00041084304D100986D196441401E41
:1019300000904FF001033A466846B8F1000FCDE938
:10194000014503A902DD00F020FF01E000F0F3FEF5
:10195000BAF1000F04460D4601D084F00044002186
:1019600008464FF00000099940F2FF77484010F018
:101970000C0F07D124F00040284303D0C4F30A50D1
:10198000B84212D1FEF77AFCC0F80090C4F30A50B6
:10199000B8420AD1A8487844D0E90010C6E900103E
:1019A00004F000410843706042E7C6E900543FE795
:1019B0002DE9FF4F1F464FF0000A4FF0FF38454614
:1019C00091B0D7E90146CDF83CA0FFF743FCC068D1
:1019D0000168405C1090B96912986D1C8847396A9B
:1019E000814688470028F6D1B9F1FF3F0AD0002E82
:1019F00024F4D06411DDB9F12B0F08D0B9F12D0F0B
:101A00000BD102E0404615B013E744F48064B96995
:101A100012986D1C8847761E8146600504A901D581
:101A20002D2000E02B20002E01F1010B0DF13008DC
:101A30008DF810003FDDB9F1690F08D0B9F1490FF9
:101A400005D0B9F16E0F02D0B9F14E0F1CD13B4653
:101A500001A8009580E85002DDE912126FF0020043
:101A600005F090FBC11CCED10EE0B96912986D1C37
:101A7000884781461398761E44F4007405600F98D9
:101A8000401C002E0F9016DDB9F1300FEDD0B9F1EA
:101A9000780F02D0B9F1580F0DD10F9801280AD153
:101AA0003B46CDE90054DDE91212001F029605F015
:101AB00067FBC11CA7D1109989453ED144F0800431
:101AC00006E01399681CAAF1010A44F40074086046
:101AD000B9696D1C1298761E884730288146F0D06F
:101AE0002BE01099894505D1200603D4761E44F0D9
:101AF000800418E0484603F00AFC08B3761E0DF196
:101B000023018B4544F4007408D2A9F130000BF88E
:101B1000010B200607D5AAF1010003E0200602D43C
:101B20000AF101008246A00502D51399681C0860DD
:101B3000B96912986D1C88478146002ED1DC53E0AC
:101B4000002E51DDB9F1650F02D0B9F1450F4BD12F
:101B5000A00549D5B9696D1C1298761E24F440740D
:101B60008847002E81460CDD2B2804D0B9F12D0FBB
:101B700007D144F48074B96912986D1C8847761EA9
:101B80008146E00501D52D2100E02B2108F8011B3D
:101B9000CDF8008021E0761E0DF13901884544F42E
:101BA00000740CD2A9F1300010F0FF0088F800009A
:101BB00002D10099884509D908F1010806E0E0053D
:101BC00001D51E4801E042F20F708246B9691298B1
:101BD0006D1C8847814613980560002E04DD484639
:101BE00003F095FB0028D6D1F96912988847FF20A9
:101BF00053468BF8000088F8000000200A900B90F4
:101C000004AA0CA90AA8FFF7ADFDA00502D46FF045
:101C10000100F8E614F0240F12D0E0071CD1386858
:101C2000DDE90A12031D3B600068C0E9001213E001
:101C3000C4650000B66500007A640000F1D8FFFFBB
:101C40000AA9684603F0F2FAE00705D13868009A5D
:101C5000011D3960006802602846D4E610B50446CC
:101C6000AFF300802046BDE81040FEF7E0BA70B543
:101C700005460C460A2000E06D1C00F039F835B12D
:101C800028780028F8D102E0641C00F031F814B183
:101C900020780028F8D1BDE870400A2000F028B86C
:101CA00010B5012805D0002103A0FFF7E0FF0120B7
:101CB00010BD09A1F8E7000053494752544D454D66
:101CC0003A204F7574206F662068656170206D65DD
:101CD0006D6F7279000000003A2048656170206DD8
:101CE000656D6F727920636F7272757074656400D0
:101CF00008B569468DF800000320ABBE08BD10B5DD
:101D0000FEF7BCFA006810BD10B50446FEF7B6FA3F
:101D1000046010BD2DE9FF4F1F464FF03C0987B00E
:101D20004FF00042DDE9141001F10108DDF858A080
:101D300002EA405003900020059083460546044681
:101D40000490B969461E08988847AAF1010A0290D2
:101D5000BAF1000F3BDD02982E2815D01021FFF7B5
:101D6000F3FC00282EDB4FF0010B0599014317D03F
:101D7000B9F1000F0BDB4A46C11700F0F5F9054336
:101D80000C43A9F1040905E0012004900BE008B11F
:101D900045F0010501200590049820B9361D02E0A8
:101DA000049800B1361FB969089808F101088847FE
:101DB000BBF1000FAAF1010A0290C9D00999C1F83C
:101DC0000080C5E70298702808D0502806D0F9692D
:101DD00008988847BBF1000F14D04FE00020029014
:101DE0000120BBF1000F049009D0B969089808F1EF
:101DF00001088847AAF10109B9F1000F07DCF96968
:101E0000089888476FF001000BB0BDE8F08F2B28D1
:101E100004D02D280CD14FF0FF300490B9690898F8
:101E200008F101088847A9F10109B9F1000FE6DDC1
:101E3000411CE4D00A21FFF787FC0028DFDB029970
:101E400008F1010801EB810100EB41000290B96942
:101E5000089888470A21FFF777FC099AA9F1010938
:101E6000B9F1000FC2F8008001DD0028E7DAF96956
:101E7000089888470499029800FB016655EA040017
:101E800004D004F04041090002D006E0039898E035
:101E9000A40044EA9574AD00B61E04F000410800A9
:101EA00002D16D196441761E159810F0240F03D0ED
:101EB0004FF00B095C4803E04FF028096FF07D00FC
:101EC0008246564507DAAAEB06018944B9F1410F6B
:101ED00001DD4FF0410901200021A9F1010200F0CC
:101EE00043F9024628400B462140084301D0012116
:101EF00000E00021501E029143F1FF3128402140B3
:101F0000084301D0012000E000200299834651EAF5
:101F10000B014FD0002108464FF00000039900F458
:101F2000400039B100EB80004FF4400100EBD0706D
:101F300001EA60008015012802DD4FF0FF3000E06B
:101F400013D0401C36D0029860B3BBF1000F0CD107
:101F50004A460120002100F007F9284021400843AB
:101F600001D0012000E00020E0B101204A4600211C
:101F700000F0FAF8034640190A4661412D1A8C41D7
:101F800011D3B9F1400F09DD159810F0240F02D0DC
:101F9000AAF1340603E0AAF1170600E0761C00253A
:101FA0004FF0004406E05B1E42F1FF3220EA0305D9
:101FB00021EA0204CAF10100B04206DA1B49039883
:101FC00008430190002000900EE0039AC4F3D3214F
:101FD000E80A0A43164940EA44500A433146CDE92B
:101FE0000002684603F088F9159810F0240F0BD012
:101FF0001598C00715D13868DDE90012031D3B6054
:102000000068C0E900120CE002A8694603F00EF96E
:102010001598C00705D13868029A011D396000681B
:1020200002604046F0E6000002FCFFFF0000F07F87
:102030000000F03F2DE9FF4F92461D4685B04FF05E
:102040000041DDE9124BDDE914727F1E01EA4B50BD
:10205000414940F0FF4940EA0108002122F02000F8
:102060004928049102D04E2828D04CE03BA00126FC
:1020700007C88DE80700A9690698641C88477F1E79
:10208000014606D41DF8060018B121F02001814256
:102090000BD0E96906988847032E34D0082E32D039
:1020A0006FF0010009B0BDE8F08F761C032E01D05F
:1020B000082EE0D1601CCAF80000DCE7A969069888
:1020C000641C88477F1E2AD420F02000412826D196
:1020D000A9690698641C88477F1E20D420F0200040
:1020E0004E281CD1A9690698641C88477F1E48F4B5
:1020F000002849F48009CAF8004001D4282806D0F5
:10210000E969069888475FEACB7012D022E0A96996
:102110000698641C88477F1E01D4002803DAE96909
:1021200006988847BCE72928F1D1641CCAF800400A
:10213000E9E71BF0240F07D028680499031D2B60E2
:102140000068C0E9001805E02868021D2A600068E0
:10215000C0F800902046A5E70000F07F494E4649B0
:102160004E49545900000000B2F120030AD5C2F1D3
:10217000200301FA02F120FA03F300FA02F041EA27
:102180000301704700FA03F14FF0000070475FEA67
:10219000400C08BF91F0000F4FEA8C234FEAC12298
:1021A00043EA51514FEA1C5018BF00F5F0404FEA86
:1021B000300018BF41F000415FEA6C5C00F02980FC
:1021C000BCF1FF3F08BF40F080407047130C06BFD2
:1021D00012044FF0100C4FF0000C130E04BF12024B
:1021E0000CF1080C130F04BF12010CF1040C930F37
:1021F00004BF92000CF1020CD30F04BF52000CF18B
:10220000010C11464FF00002A0F11F00A0EB0C00E2
:10221000704711F0004F08BF704731F000413FF4A4
:10222000D5AF0B0C06BF09044FF0100C4FF0000C9B
:102230000B0E04BF09020CF1080C0B0F04BF0901BF
:102240000CF1040C8B0F04BF89000CF1020CCB0FB6
:1022500004BF49000CF1010CCCF12003A0EB0C00F1
:1022600022FA03F302FA0CF241EA030100F1010041
:10227000704720F07F4C80EA030023F07F47ACEBEF
:10228000070303F57C5300F0004003F1FF032DE941
:1022900080494FEA154B09B44FEA144325EA0B4E27
:1022A00024EA03480FF2042606EB132749083E7878
:1022B0005FEA320203FB0667C7F5000707FB06F675
:1022C0004FEA54374FEAD64606F1020607FB066C82
:1022D000CCF1005C4FEA1C472CEA074C07FB06F4E4
:1022E0000CFB06F504EB15464FEA961634BF0020AA
:1022F0004FF000404FEAD13706FB07FC4FEA1C4C79
:102300000CFB0BF7D21B03FB0CF761EB07010CFB7B
:102310000EF7B0EB074072EB17420CFB08F734BF27
:10232000A2EB0742B2EB074261EB17414FEA0C44C4
:102330004FEA910706FB07FC4FEA1C4C0CFB0BF71E
:10234000B0EBC74072EB573203FB0CF734BFA2EB84
:10235000C742B2EBC74261EB57310CFB0EF7B0EB53
:10236000C70072EB57720CFB08F734BFA2EBC70231
:10237000B2EBC70261EB5771039F4FEA816141EAFB
:10238000921104EBCC044FEAD1374FEA826206FB8C
:1023900007FC42EA90124FEA80604FEA1C4C0CFBAB
:1023A0000BF7D21B03FB0CF761EB07010CFB0EF7DD
:1023B000B0EB074072EB17420CFB08F734BFA2EBFF
:1023C0000742B2EB074261EB17414FEA8C554FEAE7
:1023D000910704EB9C2406FB07FC4FEA1C4C0CFB0A
:1023E0000BF7B0EBC74072EB573203FB0CF734BF6F
:1023F000A2EBC742B2EBC74261EB57310CFB0EF7C1
:10240000B0EBC70072EB57720CFB08F734BFA2EBBE
:10241000C702B2EBC70261EB577115EB4C254FEACF
:10242000816141EA92114FEA82624FEAD13742EA72
:10243000901206FB07FC44F100044FEA80604FEA6B
:102440001C4C0CFB0BF7D21B03FB0CF761EB0701D9
:102450000CFB0EF7B0EB074072EB17420CFB08F7D2
:1024600034BFA2EB0742B2EB074261EB174115EB19
:102470001C154FEA813141EA92414FEA823242EA29
:1024800090424FEA80304FEA0C7644F1000448EA6B
:1024900003434EEA0B484FF0000EB2EB080C71EB11
:1024A000030724BF624639464EEB0E0E4FF0000B79
:1024B0000018524149414BEB0B0BB2EB080C71EB8E
:1024C00003077BF1000B24BF624639464EEB0E0E2C
:1024D0004FF0000B0018524149414BEB0B0BB2EB94
:1024E000080C71EB03077BF1000B24BF62463946F1
:1024F0004EEB0E0E51EA020718BF46F0010616EB2E
:102500000E7655F1000254F1000103D5BDE88901B2
:10251000BDE80088BDE88901BDE80048B619524110
:1025200041EB0101A3F10103704780807F7E7D7C38
:102530007B7A7978777676757473727171706F6E55
:102540006E6D6C6C6B6A6A69686867666665646400
:10255000636362616160605F5F5E5E5D5D5C5C5B8A
:102560005B5A5A59595858575756565555555454F9
:10257000535352525251515050504F4F4F4E4E4D57
:102580004D4D4C4C4C4B4B4B4A4A4A4949494848A3
:1025900048474747474646464545454444444443E3
:1025A00043434342424242414141000046EA06461B
:1025B000A3F570534FEA164646EA42564FEAD22236
:1025C00042EA415210B54FEAD121A3F1010300F0D4
:1025D0002FF820F0004000F1020C00F0004701EB62
:1025E00000501146BCF5006F40EA070000D210BD54
:1025F000BAF1000F0AD01CB503B44FF004004FF03D
:1026000004014FF000000FBCBDE810404FF0000186
:10261000BBF1010FB9BF04484FF0FF31034800215F
:1026200040EA070010BD00BFFFFFEF7F0000F07F12
:10263000002B9C4630D477002BD01CB54FEA3707CF
:1026400003B44FF010004FF01001BAF1000F06D0A4
:10265000BCF1000FDCBF40F0080040F008014FF073
:1026600000000FBCBDE810400BF1010BBBF1010FE6
:1026700008BF5FEA170722BF12F1010211F1010141
:102680004FF0004143F1000300F0004043EA000036
:102690007047F9D35708D0E746EA064613F1400FD2
:1026A0004FEA16461FDD13F1200FDFBF16430A461F
:1026B000002120335B42BED0C3F1200746EA064624
:1026C00002FA07F74FEA164646EA0706C3F1200763
:1026D00022FA03F201FA07F721FA03F14FF000039F
:1026E00042EA0702A7E746EA020646EA06464FEA3A
:1026F000164646EA0106BCBF46EA0646360C4FF0CF
:1027000000034FF000024FF0000194E72DE9804CE8
:102710009A46934670B491E8380007C831EA400CF5
:1027200048BF34EA430C03D5FFF7A3FDFFF780FF52
:10273000F0BCBDE8008C2DE9804C9A46934670B4FD
:1027400091E8380007C831EA400C48BF34EA430C2E
:1027500003D5FFF78EFDFFF729FFF0BCBDE8008C25
:102760002DE9804C9A46934670B491E8380007C82A
:1027700010F0804F08BF13F0804F03D100F01AF81B
:10278000FFF756FFF0BCBDE8008C2DE9804C9A465F
:10279000934670B491E8380007C810F0804F08BF26
:1027A00013F0804F03D100F005F8FFF7FFFEF0BCF7
:1027B000BDE8008C20F07F4780EA030023F07F4CC7
:1027C00007EB0C03A3F57C5300F00040A3F1FE03DC
:1027D00092F0000F00F0B38095F0000F00F07780CA
:1027E0002DE901494FEA11404FEA144621EA004819
:1027F00000FB06FC24EA064708FB06F607FB08F880
:1028000000FB07F718EB06484CEB164C4FEA124B4F
:1028100018EB07484FEA15464CEB174022EA0B4EDF
:102820000BFB06FC25EA06470EFB06F607FB0EFE31
:102830000BFB07F71EEB064E4CEB164C4FF0000659
:102840001EEB074E4CEB174B18EB0B0840F100004A
:1028500018EB0E0B58EB000840F100008F1A4FF0F8
:1028600000013CBFC943661B14BFB5EB040C00213B
:102870003CBFC943F61B4FEA17444EEA8E0E27EAC7
:1028800004454FEA1C4704FB07622CEA074C05FB92
:1028900007F70CFB05F604FB0CFC16EB074642EBB6
:1028A000174216EB0C4642EB1C421BEB060658EB9C
:1028B0000202414146EA9E0601D5BDE80189B619EA
:1028C000524141EB0101A3F10103BDE801894FEA47
:1028D00014454FEA114724EA054621EA074C05FB57
:1028E00007F406FB07F70CFB06F105FB0CFC11EBEC
:1028F000074144EB17444FEA124711EB0C4144EBFC
:102900001C4422EA074C05FB07F206FB07F70CFB09
:1029100006F605FB0CFC16EB074642EB174216EBDE
:102920000C4642EB1C456A1854F1000148BF704741
:10293000B619524141EB0101A3F10103704795F033
:10294000000F37D04FEA11424FEA144721EA0246FE
:1029500024EA074C02FB07F106FB07F70CFB06F421
:1029600002FB0CFC14EB074441EB17414FEA1547FF
:1029700014EB0C4441EB1C4125EA074C02FB07F524
:1029800006FB07F70CFB06F602FB0CFC16EB0746F2
:1029900045EB174516EB0C4645EB1C42121951F15D
:1029A000000148BF7047B619524141EB0101A3F144
:1029B000010370474FEA14454FEA114724EA0546E0
:1029C00021EA074C05FB07F106FB07F70CFB06F2B3
:1029D0004FF0000605FB0CFC12EB074241EB1741E0
:1029E00012EB0C4251EB1C4148BF7047921841EB6F
:1029F0000101A3F10103704700F00F01000900EB92
:102A0000800001EB4000C0B27047FEE7F0B506461B
:102A10000020551A02460FE08B183344002413F8A7
:102A2000013CAF1A303B03E003EB83035B00641C03
:102A3000A742F9DC1844521CAA42EDDDF0BD0A2180
:102A4000B0FBF1F2B0FBF1F301FB130000EB02105D
:102A5000C0B27047704701B5009801E0401E009079
:102A60000028FBD108BD10B54FF4805000F0A8F845
:102A7000BDE810404FF4004000F0A2B8202000F064
:102A80009FB8FEE710B590F821100022022905D06A
:102A90000421816380F82020012010BD01680B68AB
:102AA00023F00E030B6001680B6823F001030B6039
:102AB00090F84030C46B012101FA03F3636080F8A1
:102AC000211080F82020104610BD000010B590F8AD
:102AD00021100024022903D00421816301243DE058
:102AE00001680A6822F00E020A6001680A6822F092
:102AF00001020A601A4A0168914201D1012121E0D4
:102B0000174A1432914201D110211BE0144A283295
:102B1000914201D1891515E0114A3C32914201D10F
:102B200089140FE00E4A5032914202D14FF48031A5
:102B300008E00B4A6432914202D14FF4801101E067
:102B40004FF08071064A083A5160012180F8211047
:102B5000002180F82010416B01B18847204610BD4C
:102B60000800024070B5044600F038F90546601CC4
:102B700002D004480078044400F030F9401BA04221
:102B8000FAD370BD0C00002070B50C4C0125202834
:102B900006D0B0F5805F10D0B0F5004F0DD108E041
:102BA000A07830B90021042001F05EFBA570002060
:102BB000E07002F011FA2570657070BD0000002011
:102BC000044910B50A68024202D00860FFF7DCFF32
:102BD00010BD0000140401402DE9F84FDFF8B89152
:102BE000002409F1040A0AF1040B23460F270BF114
:102BF000040EC9E00125A5402A40AA427DD1674EB6
:102C0000D1F804C0ACEB0608B44532D014DCBCF1FA
:102C1000030F3AD009DCBCF1000F2AD0BCF1010F40
:102C20001CD0BCF1020F31D11DE0BCF1110F17D047
:102C3000BCF1120F2AD119E0B8F5881F19D006DCB3
:102C4000B8F5803F15D0B8F5801F1FD111E0B8F559
:102C5000001F0ED0B8F5041F18D10AE0CB6815E0AC
:102C6000CB681B1D12E0CB6808330FE0CB680C3338
:102C70000CE08B682BB1012B4FF0080303D04561AA
:102C800004E0042302E0056100E00023FF2A01D8EC
:102C9000064601E000F104064FEA840501D9A5F1DA
:102CA0002005D6F8008007FA05FC28EA0C0803FA8C
:102CB00005F548EA0508C6F800804D68ED0062D5C4
:102CC000374DAE6946F00106AE61AD6924F00306EA
:102CD00005F001050095334D06EB050CDCF80850B6
:102CE000A607360F07FA06F825EA0805DFF8B880C8
:102CF000404503D14FF0000817E044E0DFF8AC8016
:102D0000404502D14FF001080FE0DFF8A4804045B4
:102D100002D14FF0020808E0DFF89880404502D168
:102D20004FF0030801E04FF0040808FA06F848EAFB
:102D30000508CCF808804D68D9F80060ED034D46D1
:102D400001D5164300E096432E604D68DAF8006026
:102D5000AD03554601D5164300E096432E604D68FD
:102D6000DBF80060ED025D4601D5164300E09643B6
:102D70002E604D68DEF80060AD02754601D5164341
:102D800000E096432E60641C0D682A46E5407FF4FF
:102D900031AFBDE8F88F00000004014000001110C1
:102DA000001002400000014000080140000C0140FA
:102DB00000100140001401408068084000D001204C
:102DC0007047C26821EA02030A4043EA02410161F6
:102DD00070470AB1016170470904FBE70148806848
:102DE000704700000C0000200248816802781144FE
:102DF000816070470C000020074810B5016841F061
:102E000010010160032000F075F80F2000F006F8B3
:102E100000F024F8002010BD0020024070B50D4DD8
:102E200004464FF47A712878B1FBF0F00A4909683A
:102E3000B1FBF0F000F02DFC48B9102C07D20022B5
:102E40002146501E00F036F800206C6070BD012055
:102E500070BD00000C000020180000200C4808B5D0
:102E6000816941F001018161816901F001010091F5
:102E7000C16941F08051C161C06900F0805000908B
:102E80000448416821F0E06141F00071416008BDF3
:102E90000010024000000140002809DB00F01F0282
:102EA000012191404009800000F1E020C0F80011AC
:102EB00070470000F0B40E4B1B680C46C3F30223AE
:102EC000C3F10705042D00D90425191D072901D2D6
:102ED000002300E0DB1E012606FA05F1491E214011
:102EE00099409E40761E16403143F0BC02F07EB9F8
:102EF0000CED00E0064900F0070208684FF6FF03FA
:102F0000184040EA0220034A10430860704700005E
:102F10000CED00E00000FA052DE9F0470F46050032
:102F200061D0434E306800F00700B84209D23068E3
:102F300020F0070038433060306800F00700B842E6
:102F400051D128683B4C810712D5400703D56068F2
:102F500040F4E06060602878000703D5606840F4C2
:102F6000605060606068A96820F0F000084360600D
:102F70002878C00728D06868012810D02168022866
:102F800010D0890700292EDA616821F0030101437E
:102F90006160FFF723FF804641F288390DE0216828
:102FA0008903EFE78901EDE7FFF718FFA0EB0801C0
:102FB000494502D90320BDE8F0876068696800F0E0
:102FC0000C00B0EB810FEFD1306800F00700B84281
:102FD0000BD9306820F0070038433060306800F0CB
:102FE0000700B84201D00120E5E72878400705D561
:102FF0006068E96820F4E0600843606028780007B2
:1030000006D56068296920F4605040EAC10060601C
:1030100000F038F86168084AC1F30311515CC840F8
:103020000649086006480068FFF7F8FE0020C2E77E
:103030000020024000100240C47100081800002067
:10304000100000200448054900684968044AC1F39B
:103050000221515CC8407047180000200010024057
:10306000D47100080448054900684968044AC1F35E
:10307000C221515CC8407047180000200010024077
:10308000D471000813A185B00FC98DE80F0015A0F9
:10309000154A00680490516801F00C00042804D01F
:1030A000082804D0114805B070471148FBE7C1F368
:1030B0008343C9031DF8030009D5516804AAC1F36D
:1030C0004041515C0A4A5043B0FBF1F0EBE709493B
:1030D0004843E8E702030405060708090A0B0C0D3C
:1030E0000E0F1010010200000010024000127A00C2
:1030F0000024F40000093D002DE9F84F040070D0D1
:103100002078C04DC00749D06868C0F3810001280D
:1031100007D06868C0F38100022809D16868C0033D
:1031200006D52868800339D560680028E7D035E0E7
:103130006068B0F5803F0BD010B1B0F5A02F11D072
:10314000286820F480302860286820F4802002E07D
:10315000286840F480302860606890B1FFF73EFE38
:1031600006460AE0286840F480202860F0E700BFA7
:10317000FFF734FE801B642873D828688003F7D5D6
:103180000CE0FFF72BFE064605E000BFFFF726FE2A
:10319000801B6428F0D828688003F7D420789A4EE2
:1031A00080074FF001094FF0000839D5686810F02A
:1031B0000C0F07D06868C0F38100022809D1686845
:1031C000C00306D42868800714D52069012808D1D7
:1031D00010E02069B0B1C6F80090FFF7FFFD074688
:1031E00005E00AE1FFF7FAFDC01B0228C4D82868F1
:1031F0008007F7D52868616920F0F80040EAC1002F
:1032000028600DE0C6F80080FFF7E8FD074604E0FF
:10321000FFF7E4FDC01B022823D828688007F7D4F5
:10322000207800072CD57948A169D9B1C0F8009061
:10323000FFF7D4FD074604E0FFF7D0FDC01B0228CE
:103240000FD8686A8007F7D571484FF4FA510068C3
:10325000B0FBF1F0009000BF0098411E0091FAD23F
:103260000EE080E0C0F80080FFF7B8FD074604E0FC
:10327000FFF7B4FDC01B022875D8686A8007F7D431
:103280002078400760D5E8690027C00008D4E869C5
:1032900040F08050E861E869012700F0805000901C
:1032A0005C480168C90513D40168834641F4807104
:1032B0000160FFF793FD824606E000BFFFF78EFD39
:1032C000A0EB0A0064284ED8DBF80000C005F5D555
:1032D000E06801280AD008B1052813D0286A20F038
:1032E00001002862286A20F0040002E0286A40F009
:1032F00001002862E06841F2883B98B1FFF76EFD5B
:1033000082460BE0286A40F004002862EEE700BF26
:10331000FFF764FDA0EB0A0159455AD8286A8007D7
:10332000F6D50CE0FFF75AFD824605E0FFF756FDA3
:10333000A0EB0A0159454CD8286A8007F6D41FB182
:10334000E86920F08050E861E06988B36968C1F3FA
:103350008101022944D00228C6F8608004D0FFF71A
:103360003DFD044638E034E0FFF738FD074604E051
:10337000FFF734FDC01B02282BD828688001F7D442
:10338000206AB0F5803F05D16868A16820F400305C
:1033900008436860D4E908010843696821F474119E
:1033A00008436860C6F86090FFF718FD044606E021
:1033B00025E000BFFFF712FD001B022809D828688E
:1033C0008001F7D51BE000BFFFF708FD001B0228B6
:1033D00002D90320BDE8F88F28688001F4D40EE0FC
:1033E0000128F7D06868226A00F48031914204D144
:1033F000616A00F47010884201D00120EAE70020E1
:10340000E8E700000010024000004242800442420F
:10341000180000200070004070B5040009D0606AF8
:10342000002540B125616561A56294F8510040B165
:103430000CE0012070BD6068B0F5827FF4D0E561DA
:10344000F2E784F85050204600F040F8022084F85B
:1034500051002068016821F040010160A0882189A5
:1034600000F4827001F404410843A18901F4006171
:103470000843217C01F002010843217D01F0010194
:103480000843218B01F400710843217F01F03801CA
:10349000084394F8201001F080010843218D01F4C5
:1034A0000051084321680860A069042101EA104026
:1034B000216848602068C16921F40061C1616565C7
:1034C000012084F85100002070BD000000B585B0D7
:1034D00000210091019102910391006810498842F6
:1034E0001BD11048C16941F48041C161C16901F437
:1034F00080410491816941F00801816180696946D8
:1035000000F0080004904FF4204000900220019049
:10351000032003900448FFF75FFB05B000BD0000E7
:103520000038004000100240000C01402DE9F84F27
:10353000044690F8500000271D461646894601288B
:103540000DD04FF0010B84F850B0FFF747FC8046D8
:1035500094F85100BA46012804D0022793E00220D3
:10356000BDE8F88FB9F1000F73D0002E71D00320A1
:1035700084F85100C4F854A0C4F83090A686E686BA
:10358000C4F838A0A4F83CA0A4F83EA0C4F844A015
:10359000C4F840A0A068B0F5004F09D120680168C8
:1035A00021F0400101602068016841F48041016020
:1035B00020680168490603D4016841F040010160B8
:1035C000E068B0F5006F606803D030B3012E24D0FE
:1035D00041E008B1012E1CD1206B21680088C86031
:1035E00006E020688168890709D5216B0988C160D8
:1035F000206B801C2063E08E401EE08609E0FFF710
:10360000EDFBA0EB0800A84202D3681C01D031E01A
:103610007DB3E08E0028E4D120E0206B21680078A3
:10362000087306E020688168890709D5216B09784D
:103630000173206B401C2063E08E401EE0860AE090
:10364000FFF7CCFBA0EB0800A84203D3681C02D014
:1036500010E017E06DB1E08E0028E3D14246294624
:10366000204601F07CFA08B120206065A06818B1FE
:1036700006E0FFE7032706E02068C1688068009045
:10368000606D00B1012784F851B084F850A038462D
:1036900066E710B5401EB0F1807F01D3012010BD58
:1036A0004FF0E02460610F21601701F09FFD0020C2
:1036B000A06107202061002010BD70477047000006
:1036C00070B590F83C20012A26D0012480F83C40B7
:1036D000022280F83D2003685A689D6822F0700637
:1036E0000A6832435A600D4B02689A4208D0B2F120
:1036F000804F05D00A4B9A4202D00A4B9A4204D11D
:10370000496825F080031943916080F83D4000210D
:1037100080F83C10084670BD022070BD002C0140AE
:10372000000400400008004010B5040003D094F8E5
:103730003D0010B107E0012010BD002084F83C00DE
:10374000204600F01FF8022084F83D00211D20686B
:1037500001F0AAFA012084F8460084F83E0084F8BB
:103760003F0084F8400084F8410084F8420084F867
:10377000430084F8440084F8450084F83D000020AC
:1037800010BD000008B50068B0F1804F12D10A48A2
:10379000C16941F00101C161C069002200F001006E
:1037A000009002211C20FFF785FBBDE808401C208B
:1037B000FFF772BB08BD00000010024090F83D10FA
:1037C000012901D001207047022180F83D100168D5
:1037D000CA6842F00102CA6000680B49884208D0FA
:1037E000B0F1804F05D00949884202D0084988428B
:1037F00004D1816801F00701062903D0016841F076
:103800000101016000207047002C014000040040CD
:103810000008004070B5044690F83C00012817D01D
:10382000012584F83C50022084F83D00206882681D
:1038300022F0770222F47F4282600868502830D05C
:103840000DDC20284DD005DC98B310283BD148E092
:10385000022070BD302844D0402834D139E060289F
:1038600028D0702806D0B0F5805F2CD0B0F5005F6E
:1038700029D10AE0CB68D1E90121206801F04AFA98
:103880002068816841F0770109E0CB68D1E9012126
:10389000206801F03FFA2068816841F4804181602E
:1038A00011E0CA684968206801F046FA5021206892
:1038B00007E016E0CA684968206801F04EFA602106
:1038C000206801F031FA84F83D50002084F83C0073
:1038D00070BDCA684968206801F02EFA402120684E
:1038E000EFE7226801461046EBE7704770B50446E3
:1038F000006801694FF00005C943890715D4C16804
:10390000C943890711D4E91E01610120207720688D
:1039100080698007204602D0FFF7E7FF04E000F04F
:1039200098F8204600F096F8257720680169C94389
:10393000490717D4C168C943490713D46FF004017C
:103940000161022020772068806910F4407F2046C2
:1039500002D0FFF7CAFF04E000F07BF8204600F039
:1039600079F8257720680169C943090716D4C16829
:10397000C943090712D46FF00801016104202077C0
:103980002068C0698007204602D0FFF7AEFF04E040
:1039900000F05FF8204600F05DF8257720680169A7
:1039A000C943C90617D4C168C943C90613D46FF007
:1039B00010010161082020772068C06910F4407F61
:1039C000204602D0FFF791FF04E000F042F82046C5
:1039D00000F040F8257720680169C943C90708D17C
:1039E000C168C943C90704D1891E0161204600F09E
:1039F00033F820680169C943090609D4C168C9437D
:103A0000090605D46FF0800101612046FFF755FEDD
:103A100020680169C943490609D4C168C9434906F8
:103A200005D46FF040010161204600F049F820689C
:103A30000169C94389060BD4C168C943890607D403
:103A40006FF0200101612046BDE87040FFF736BEEF
:103A500070BD70477047000038B5154CE078401CC9
:103A6000C0B2E070A178012907D10A2805D9042045
:103A700000F0FAFB0020E070A07010210D48FFF765
:103A8000A0F900F0C9FA00F0DDFE102000900A480D
:103A9000022305218278102001F006F8A078012881
:103AA00005D1BDE838400549042000F083BC38BD8D
:103AB00000000020000C01405803002052BF01000C
:103AC0007047704770470000F8B5026804461068F8
:103AD000D168536910F00F0F4FF0000553D003F079
:103AE000010601F4907737435FD0C20705D0CA05BD
:103AF00003D5226C42F001022264420705D5DA07A1
:103B000003D0226C42F002022264820705D5DA0754
:103B100003D0226C42F004022264020707D501F0B0
:103B20002002324303D0226C42F008022264226C4D
:103B3000002A34D0800604D5880602D5204601F03C
:103B40003EF920684069216CC0F38010090700D459
:103B500030B3204601F01BF92068416949061BD5A6
:103B6000416921F040014161A06BA8B1584941630E
:103B7000A06BFEF7ABFF002811D0A06B416B01B02A
:103B8000BDE8F040084783060FD58B060DD52046CB
:103B9000BDE8F84001F013B92046FFF793FFF8BDE8
:103BA0002046FFF78FFF2564F8BD266B2023012EEA
:103BB00052D1C60650D5CE064ED51068506800903A
:103BC000506940062AD5A16B086840680004000CC3
:103BD000EAD0A68D8642E7D9E0858869202818D0EA
:103BE000D06820F48070D0602068416921F0010124
:103BF00041612068416921F04001416184F83E3013
:103C000025632068C16821F01001C160A06BFEF738
:103C100039FFA08DE18D401A81B219E0A08DE18DB0
:103C2000401A81B2E08D0028BED00029BCD0D068F7
:103C300020F49070D0602068426922F00102426155
:103C400084F83E3025632068C26822F01002C2600A
:103C50002046FFF736FFF8BD05062BD50D0629D502
:103C600094F83D002128F6D1A068B0F5805F01D11D
:103C70002069B0B1206A411C216221680078486047
:103C8000E08C401E0004000CE084E4D12068C16890
:103C900021F08001C1602068C16841F04001C1602D
:103CA000F8BD206A0088C0F308005060206A801CBC
:103CB0002062E5E74006F3D54806F1D5D1682046F5
:103CC00021F04001D16084F83D3000F028F9F8BDC2
:103CD0007F4D000870B5040004D094F83D00002525
:103CE00010B106E0012070BD84F83C50204600F081
:103CF00023F8242084F83D002068C16821F4005195
:103D0000C160204601F0B6F82068016921F49041B5
:103D100001612068416921F02A0141612068C16880
:103D200041F40051C1602564202084F83D0084F8EE
:103D30003E00002070BD000030B585B00024009426
:103D40000194029403940068194988422DD11948BE
:103D5000C16941F48021C161C16901F480210491EC
:103D6000816941F0080181618069134D00F008000C
:103D700004904FF480600090022001900320039093
:103D800069462846FEF728FFE814CDE90004012023
:103D9000029069462846FEF71FFF002211462720A1
:103DA000FFF788F82720FFF777F805B030BD00004F
:103DB0000048004000100240000C014090F83E30E6
:103DC000202B0ED159B152B190F83C30012B08D0C4
:103DD000012380F83C300023036301F0A7B80120E1
:103DE000704702207047000070B51B4C1B4DA16846
:103DF00022796A54491CA1600068194A904222D174
:103E00006818002610F8012C0A2A07D110F8020CB5
:103E10000D2818D12846FCF796FCA660A068284417
:103E200010F8011C7D290ED110F8020C22280AD1AD
:103E30000A490C48FCF7C3FB0848A168FCF783FC5F
:103E40000120A6602070BDE8704003490122091DD1
:103E50000548FFF7B3BF0000000000206800002005
:103E60000048004068030020080300202DE9F843C3
:103E7000044690F83D001F4616460D4620284CD1BA
:103E8000C5B1BEB194F83C00012846D0012084F8A9
:103E90003C004FF00008C4F84080212084F83D0029
:103EA000FEF79CFFA6848146E684A068B0F5805F9B
:103EB00003D004E00120BDE8F883206928B12E4634
:103EC0005FF0000584F83C800EE00026FAE78021D0
:103ED000204601F046F8A0B9AEB116F8010B2168F2
:103EE0004860E08C401EE084E08C4B464FF00002BE
:103EF00000970028EBD14FF04001204601F031F847
:103F000030B10320D7E735F8020BC0F30800E6E72D
:103F1000202084F83D000020CDE70220CBE7704749
:103F2000FEE770B50C46054601F0E4FCD02001F038
:103F3000B3FC01F017FD58B9284601F0ADFC01F0C3
:103F400011FD28B9204601F0A7FC01F00BFD18B1C6
:103F500001F0F0FC002070BD01F0ECFC012070BD10
:103F600010B5044601F0C6FCD02001F095FC01F02C
:103F7000F9FC68B9204601F08FFC01F0F3FC38B978
:103F800001F0B8FCD12001F087FC01F0EBFC18B186
:103F900001F0D0FC002010BD01F05AFC044601F0F5
:103FA0003BFC01F0C7FC204610BD01F0C3BC2DE96D
:103FB000F041A0F5FA60DDE90645984616460F4641
:103FC000C0B2FEF73CFD01460620FFF7AAFF3846C7
:103FD000FEF735FD01460520FFF7A3FF3046FEF74B
:103FE0002EFD01460420FFF79CFF4046FEF727FD0B
:103FF00001460220FFF795FF2046FEF720FD01460F
:104000000120FFF78EFF2846FEF719FDBDE8F041BD
:1040100001460020FFF785BF10B50620FFF7A0FF7F
:10402000194C6060FEF7E8FC00F5FA60606005205E
:10403000FFF796FF2072FEF7DFFC20720420FFF7E7
:104040008FFF6072FEF7D8FC60720320FFF788FFD5
:10405000A072FEF7D1FCA0720220FFF781FF00F0F2
:104060003F002070FEF7C8FC20700120FFF778FFAA
:104070006070FEF7C1FC60700020FFF771FFA07058
:10408000FEF7BAFCA07010BD58030020F0B585B053
:10409000002000900190029003903548816941F022
:1040A00020018161816901F020010491816941F061
:1040B00004018161816901F004010491816941F089
:1040C0000801816180692B4E00F0080040F6FF7402
:1040D0000490002221463046FEF77BFE264F002248
:1040E00045F2DB313846FEF774FE009401240225C8
:1040F000694630460194CDE90245FEF76DFD40F278
:10410000D330CDE9000469463846CDE90245FEF7D3
:1041100063FD45F20800CDE900040320CDE902402B
:1041200069463846FEF758FD144D4FF41040CDE96E
:104130000005694602943046FEF74EFD2020CDE989
:104140000005694602943846FEF746FD0022032129
:104150001720FEF7AFFE1720FEF79EFE0022032178
:104160002820FEF7A7FE2820FEF796FE05B0F0BD3A
:104170000010024000080140000C01400000111036
:104180000F4810B50D4901604FF482714160002164
:104190008160C1604FF400720161C0E90512C16124
:1041A0000162416281620A21C162FFF735F900288C
:1041B00003D0BDE81040FEF764BC10BD00380040DD
:1041C0006802002010B586B00024174800940194BE
:1041D0000294039404944FF080410594016041F6E9
:1041E0001F41C0E9011442F20F71C0E90314846158
:1041F000FFF79AFA08B1FEF744FC4FF480500090A4
:1042000069460948FFF706FB08B1FEF73AFC04943B
:1042100004A905480594FFF753FA002801D0FEF7DA
:1042200030FC06B010BD0000C00200200C4810B5E4
:104230000A4901604FF4E1314160002181600C22A4
:10424000C160C0E904128161C161FFF743FD00282C
:1042500003D0BDE81040FEF714BC10BD004800407C
:1042600008030020FEE7FEE72DE9F05FDFF8348168
:104270004D4F024601244948494D0A2698F800301E
:104280004FF4706B07F10C0907F1180A052A11D2D7
:10429000DFE802F003182A40550001290CD000295C
:1042A00008D11946104600F085F898F80000B0FBD8
:1042B000F6F06860BDE8F09F01220F21FEF789FD4E
:1042C0002C72F7E7012909D00029F3D1B3FBF6F0EE
:1042D00006FB10307860194610463DE00122F021BF
:1042E000FEF777FD3C72E5E701290CD00029E1D10A
:1042F0001946104600F05EF898F80100B0FBF6F1A0
:10430000C9F80410D6E701225946FEF762FD89F884
:104310000840CFE701290FD00029CBD198F8011030
:10432000104600F047F898F80100B0FBF6F106FBE4
:104330001101CAF80410BDE78AF8084025E00129F8
:104340000ED00029B6D100202872387289F80800F2
:104350008AF8080015490420BDE8F05F00F02AB88B
:104360002C723C7289F808408AF8084001220F211B
:104370000446FEF72EFD0122F0212046FEF729FD1E
:10438000012259462046FEF724FDBDE8F05F0122D8
:1043900040F203310648FEF71CBD00000008014052
:1043A0004C030020580300201C00002052BF0100D5
:1043B000000C01402DE9F0410246F6484FF48078A8
:1043C00045154FF44074052A72D2DFE802F0034D20
:1043D000A0F5F3000A296BD2DFE801F005080B1005
:1043E0001820282F363E00220F2115E100220E2131
:1043F000FAE000220D2100E120460DE10122032117
:104400000446FEF7E6FC00220C21F5E700220B2112
:104410000446FEF7DEFC01220421EDE7012205211E
:104420000446FEF7D6FC00220A21E5E70022092116
:104430000446FEF7CEFC012214E0002208210446C7
:10444000FEF7C7FC012205E0012208210446FEF721
:10445000C0FC00220721CFE7012209210446FEF714
:10446000B8FC00220621C7E70A2921D2DFE801F0C3
:1044700005081018212931383F470022F021CBE0F0
:104480000022E0210446FEF7A4FC01221021B3E73C
:104490000022D0210446FEF79CFC01222021ABE73C
:1044A000012230210446FEF794FC0022C021A3E73C
:1044B000A9E00022B0210446FEF78BFC0122402136
:1044C0009AE7012250210446FEF783FC0022A02136
:1044D00092E7002290210446FEF77BFC012214E0C3
:1044E000002280210446FEF774FC012205E001222F
:1044F00080210446FEF76DFC002270217CE701223A
:1045000090210446FEF765FC0022602174E74FF419
:1045100010634FF4C0664FF4006C4FF4E0670A2953
:1045200071D2DFE801F005090D161F2832393C3F32
:1045300000224FF470616FE000224FF4606172E07E
:1045400000224FF450610446FEF743FC0122294645
:1045500052E7214601220446FEF73BFC00224FF4BD
:10456000406149E700224FF430610446FEF731FC18
:104570000122910240E701224FF4A0610446FEF7B8
:1045800028FC00224FF4206136E700221946044639
:10459000FEF71FFC01220BE00022614655E00122DC
:1045A000614659E0012219460446FEF712FC00223A
:1045B000314621E756E0FFE74FF481767648771CD5
:1045C00040F201230A291ED2DFE801F0070B141E76
:1045D0002A33063D4405E5E7D7E7002240F20331E0
:1045E0001AE0002240F202310446FEF7F2FB0122FB
:1045F000114601E7002240F201310446FEF7E9FBD3
:1046000001220221F8E6CDE0012203210546FEF752
:10461000E0FB002221462846BDE8F041FEF7D9BB69
:10462000002240F203210446FEF7D3FB012241465B
:10463000E2E6012240F201110446FEF7CAFB002225
:1046400040F20221D8E6002229460446FEF7C1FBCB
:10465000012205E0012229460446FEF7BAFB0022AA
:104660003946C9E64D4881421BD14D4C0A25207878
:10467000B0FBF5F10020FFF79DFE2078B0FBF5F1CF
:1046800005FB11010120FFF795FE6078B0FBF5F105
:104690000220FFF78FFE6078B0FBF5F105FB1101FA
:1046A0009CE00A297ED2DFE801F00513212F3D4B63
:1046B00059677E8C00210846FFF77CFE002101200F
:1046C000FFF778FE00210220FFF774FE002185E04D
:1046D00001210020FFF76EFE01210846FFF76AFE68
:1046E00001210220FFF766FE012177E00221002070
:1046F000FFF760FE02210120FFF75CFE0221084661
:10470000FFF758FE022169E003210020FFF752FE67
:1047100003210120FFF74EFE03210220FFF74AFE8E
:1047200003215BE004210020FFF744FE0421012067
:10473000FFF740FE04210220FFF73CFE04214DE07C
:1047400005210020FFF736FE05210120FFF732FE8C
:1047500005210220FFF72EFE05213FE00621002063
:10476000FFF728FE06210120FFF724FE0621022084
:10477000FFF720FE062131E007210020FFF71AFE97
:1047800007210120FFF716FE07210220FFF712FE86
:10479000072123E000080140000C014052BF010046
:1047A000580300201EE008210020FFF703FE082127
:1047B0000120FFF7FFFD08210220FFF7FBFD082184
:1047C0000CE009210020FFF7F5FD09210120FFF78A
:1047D000F1FD09210220FFF7EDFD0921BDE8F041BF
:1047E0000320E7E5BDE8F08170B500244FF4FA75C9
:1047F00021460420FFF7DEFD2846FEF7B3F9641CCE
:104800000A2CF5DB70BD70B5002404F1B000C0B215
:10481000002100F07BF90021084600F077F9002123
:10482000102000F073F900250121002000F06EF93E
:104830006D1CEDB2802DF7D3641CE4B2082CE4D3D8
:1048400070BD0000F8B51C4C0A251C4E20780021D4
:10485000B0FBF5F006EBC0100090042320220846C0
:1048600000F02EF820780423B0FBF5F105FB1100D1
:1048700006EBC010009040220021202000F020F81C
:1048800060780723B0FBF5F006EBC01000906022C3
:104890000321402000F014F860780723B0FBF5F105
:1048A00005FB110006EBC010009080220321602060
:1048B00000F006F8F8BD000058030020CC7700088F
:1048C0002DE9F04798461746824600260C46DDF84B
:1048D000209011E02146504600F09EF8554607E032
:1048E00019F806000121761C00F010F96D1CEDB2DC
:1048F000BD42F5D3641CE4B24445EBD3BDE8F08778
:1049000070B5444D4FF48044002221462846FEF7FE
:1049100060FAC820FEF726F9012221462846FEF754
:1049200058FA0021AE2000F0F1F80021022000F03A
:10493000EDF80021102000F0E9F80021402000F0FF
:10494000E5F80021812000F0E1F80021CF2000F0FF
:10495000DDF80021A12000F0D9F80021C82000F0E6
:10496000D5F80021A62000F0D1F80021A82000F001
:10497000CDF800213F2000F0C9F80021D32000F03D
:10498000C5F80021084600F0C1F80021D52000F04C
:10499000BDF80021802000F0B9F80021D92000F0F6
:1049A000B5F80021F12000F0B1F80021DA2000F084
:1049B000ADF80021122000F0A9F80021DB2000F062
:1049C000A5F80021402000F0A1F80021202000F0EF
:1049D0009DF80021022000F099F800218D2000F0C0
:1049E00095F80021142000F091F80021A42000F097
:1049F0008DF80021A62000F089F80021AF2000F0FA
:104A000085F80021AF2000F081F8BDE87040FFF785
:104A1000FABE0000000C014010B50446B031C8B227
:104A2000002100F073F8A41CC4F3031040F0100040
:104A3000002100F06BF804F00F00BDE810400021E9
:104A400000F064B82DE9F041203A00240D4680467C
:104A5000D7B27F2803D900208D1C8046EDB22946AD
:104A6000FFF7DAFF0F4E00BF04EB07100121305CA7
:104A700000F04CF8641CE4B2082CF5D36D1CE9B2CC
:104A80004046FFF7C9FF002404EB07103044012122
:104A9000007A00F03BF8641CE4B2082CF4D3BDE8C3
:104AA000F0810000DC7100082DE9F0478046002607
:104AB00008981D4691468A463446470821E0281B3F
:104AC000401EC1B20A2001F0A5FDB9FBF0F00A2199
:104AD000B0FBF1F201FB120026B9691E8C4201DA2B
:104AE00030B101263030C2B207FB0480C0B203E00F
:104AF00007FB0480C0B220225146FFF7A3FF641CCD
:104B0000E4B2AC42DBD3BDE8F087000073B5114CD2
:104B10004FF4805509B1012200E0002229462046C9
:104B2000FEF757F9002208212046FEF752F94FF40C
:104B30007A73012269460848FEF7F8FC0122082131
:104B40002046FEF746F9012229462046FEF741F9A4
:104B50007CBD0000000C014068020020704738B5A1
:104B60000B46009204460022802100F009F800283C
:104B700004D0606D40F020006065032038BD000067
:104B80002DE9F8431E46914688460446089DFEF7E7
:104B900025F9401B351AFEF721F90746254800681C
:104BA000C0F3CB30684338E0701C37D0FEF716F9FD
:104BB000C01BA84203D215B1009860B32CE0206856
:104BC000416821F0E00141606068B0F5827F0BD15F
:104BD000A068B0F5004F02D0B0F5806F04D1206816
:104BE000016821F040010160A06AB0F5005F09D1C1
:104BF0002068016821F4005101602068016841F4D7
:104C000000510160012084F85100002084F8500018
:104C10000320BDE8F8830025401E009020688168CD
:104C200038EA010004D000214945BDD10020F0E759
:104C30000121F9E7180000207047FEF7D5B810B53C
:104C400090B028216846FBF7A0FD14210AA8FBF7C5
:104C50009CFD01210804CDE90010420002920224CB
:104C60000491CDE907404FF4E01009906846FEF743
:104C700043FA00B1FEE70F20CDE90A0400204FF40B
:104C80008061CDE90C010E9002210AA8FEF744F9DB
:104C9000002800D0FEE710B010BD70470148FEF7B5
:104CA00025BE0000C0020020F0B50268164B174C6C
:104CB000174D4FF08047984205D0B84203D0A0422C
:104CC00001D0A84203D122F070064A6832439842CC
:104CD00005D0B84203D0A04201D0A84203D122F4AB
:104CE0004074CA6822434C6922F080022243026069
:104CF0008A68C2620A688262984201D109690163C6
:104D000001214161F0BD0000002C01400004004081
:104D10000008004010B5846842EA032224F47F446E
:104D20000A432243826010BD826822F070020A4367
:104D300042F007018160704710B5036A046A24F0ED
:104D400001040462846924F0F00444EA021423F0AC
:104D50000A020A438461026210BD10B5036A23F09F
:104D6000100303628369046A23F4704343EA023246
:104D700024F0A00343EA01118261016210BD10B565
:104D8000406A0021C185C184FEF79CFE10BD016808
:104D9000CA6822F49072CA6001684A6922F001026E
:104DA0004A61016B012904D10168CA6822F010022E
:104DB000CA60202180F83E1000210163704708B5C9
:104DC00090F83E10222901D0022008BD82684FF4DD
:104DD00080539A4201D1016921B1816A9A421BD064
:104DE0004AB10AE00268816A5268C2F308020A8086
:104DF000816A891C08E0026972B10268526802F097
:104E00007F020A70816A491C8162C18D491E0904B2
:104E1000090CC18503D019E002685268F1E7016806
:104E2000CA6822F02002CA600168CA6822F480724F
:104E3000CA6001684A6922F001024A61202180F8B3
:104E40003E10016B012903D0FEF7CEFF002008BD04
:104E5000002101630168CA6822F01002CA6001687B
:104E60000A68D20602D50A6849680091818DFEF76A
:104E700028FEEBE770B5044600680169E26821F49A
:104E80004051114301612169A068084361690843E9
:104E90002168CA6841F20C639A430243CA602068E1
:104EA0004169A26921F44071114341611E492068A2
:104EB000884202D1FEF7D6F801E0FEF7C3F800EB16
:104EC000C00101EB0012606864218000B2FBF0F3C6
:104ED000B3FBF1F36FF018067343B2FBF0F5B2FBCE
:104EE000F0F605EB8305322303EB0515B5FBF1F571
:104EF000B6FBF1F605F0F00505EB0615B2FBF0F692
:104F0000B2FBF0F0B0FBF1F06FF01802504306EB8B
:104F1000800003EB0010B0FBF1F0216800F00F00FF
:104F20002844886070BD000000380140816282859D
:104F3000C28500210164222280F83E2080F83C10C6
:104F40000168CA6842F48072CA6001684A6942F026
:104F500001024A610068C16841F02001C16000207F
:104F600070472DE9F041984617460E460446069DC7
:104F70001DE0681C1BD02DB1FDF730FFA0EB080031
:104F8000A84214D92068C16821F4D071C16020689A
:104F9000416921F001014161202084F83D0084F83D
:104FA0003E00002084F83C000320BDE8F08120682A
:104FB000006836EA000004D00020B842D9D00020B2
:104FC000F3E70120F9E700000148FEF77DBD00008E
:104FD00008030020FEE7000010B5C0B01BA11F4869
:104FE00000F0B8F81E4C2046FDF735FD1DA11B480A
:104FF00000F0B0F82046FDF72EFD1EA221A1684664
:10500000FBF7B0F96946154800F0A4F8244C204697
:10501000FDF721FD23A1114800F09CF82046FDF783
:105020001AFD24490D4800F095F82046FDF713FDC0
:1050300021A10A4800F08EF82046FDF70CFD1FA1C3
:10504000064800F087F840B010BD000041542B43E3
:1050500049504D55583D300D0A000000080300200E
:1050600040420F0041542B4349504D4F44453D3180
:105070000D0A00007175616E2E73756E696E672E74
:10508000636F6D0041542B43495053544152543D7A
:1050900022544350222C222573222C38300D0A0032
:1050A0004054890041542B43495053454E440D0A06
:1050B00000000000A47D00082B2B2B0041542B4343
:1050C0004950434C4F53450D0A00000000B58BB0CA
:1050D0000BA1104800F03EF80FA10E4800F03AF87E
:1050E0004FF47A70FDF7B7FC0EA311A212A1684627
:1050F000FBF738F96946074800F02CF80BB000BD03
:1051000041542B43574D4F44455F4445463D310D77
:105110000A0000000803002041542B43574C415023
:105120000D0A0000313233343536373800000000C4
:105130004E6978696500000041542B43574A41503D
:105140005F4445463D222573222C222573220D0AF9
:10515000000000002DE9F0410D46074600244FF401
:105160007A762919334601223846FEF77FFE641C01
:10517000285D0028F5D1BDE8F08130B47446641E86
:105180002578641CAB4200D21D46635D5B00E318CA
:1051900030BC1847490050EAC12018BF04204A0D0E
:1051A00018BF40F0010040F2FF72B2EB515F08BF40
:1051B00040F00200012808BF052070470122490085
:1051C0005205D14201D1002801D0002070470120B2
:1051D00070470000002800D0012001434800024928
:1051E0004008081AC00F70470000F07F0907090E39
:1051F000002804DB00F1E02080F80014704700F084
:105200000F0000F1E02080F8141D704740F20132D9
:1052100000204FF0E04101F083BF0000024A00206F
:10522000110701F07DBF000001FDFFFF10B504462E
:10523000D1E9000100F002F8206010BDF8B5044685
:105240000D466A4600F008F900987E30009000286C
:105250001EDC002213462046294601F029FE17D005
:10526000002140F608004FF000000646204629467F
:1052700001F0D8FD044640F6080006EA00014FF0B0
:10528000000034F0004004BF0220FCF73DFD29E09F
:105290000098FF2828DB002108464FF0000000F4AA
:1052A0004006002213462046294601F0C7FE8CBF67
:1052B000002501250220FCF727FD4FF0FF4446B1F1
:1052C000002D0CBF4FF400004FF48000B04218BF17
:1052D000084C042108464FF00000002D04BF84F064
:1052E0000040F8BD2046F8BD20462946BDE8F840FC
:1052F00001F098BDFFFF7F7F10B504460A46D4E950
:105300000003194600F0AAFDC4E9000110BD3038C1
:105310000A2801D2012070470020704770B50D4661
:1053200004998C0099008918AA0010182246FBF7EE
:10533000D8F970BD0A680C30824204D148688242B4
:1053400001D1012070470020704710B5034619783D
:105350000020752901D0FBF727F90122995C000193
:105360000C46303C092C02D8401830380CE00C4672
:10537000613C192C02D84018573805E00C46413CD6
:10538000192C05D840183738521C042AE6DD10BD08
:105390000020C04310BD00000FB4F0B5D5B0002010
:1053A00000255290ED435A980C462AAE539500289A
:1053B00038D05DABA02130465C9AFAF7B9FF0027E0
:1053C00050A8C771002C24D02046283001F08CFB57
:1053D000A1695391E569616A529100280DD0017865
:1053E00000290AD0E16A142913D800902AAB10A230
:1053F000A02102A8FAF7CCFF08E06069801C08D061
:105400002AAB0FA2A02102A8FAF7C2FF28A8C771F1
:1054100002AE10A0009001962A46529B53995A98CA
:1054200000F085FC55B0F0BC08BC04B01847000083
:105430002573206E65617220272573270000000008
:105440002573206E65617220656E64206F6620662C
:10545000696C65002573000010B5144600222260B7
:10546000114A21F000439342A8BF10BD53EA000245
:1054700008BF10BDB3F5801FA8BF226807DA362227
:1054800001F04EFE6FF0350221F000432260DFF89C
:105490001CC06FF31E510CEB23531A4441F0FF5113
:1054A00041F00051226010BD0000F07F02FCFFFFC0
:1054B00070B5044688184E4A80180246154646E0E4
:1054C00023785B1965782D02EB18A5782D04EB186D
:1054D000E5782D06EE1823799A1863791B029A183D
:1054E000A3791B049A18E3791B069B18227A1018DB
:1054F000627A12021018A27A12041018E27A1206C6
:105500001518701B1C262A46F24142401046ED1821
:105510001B1A1A26F2415A4013464019ED1A182652
:10552000F2416A4015461B18401B1026F2414240CA
:10553000EE1810461B1A0D25EA4153408519F21A40
:1055400018461C26F04150405A190C390C340C29CD
:10555000B6D80B00FFF711FE0D4A2724211E1C1997
:105560001613110E0B082900E17A09060818A17A12
:1055700009040818617A09020818217A0818E179E3
:1055800009068A18A17909048A18617909028A181A
:1055900021798A18E17809064D19A17809044D1975
:1055A000617809024D1921784D1912231146D9410C
:1055B0005040411A152308464D40D841281A072467
:1055C0000346E3414240D21A10241346E3415140BE
:1055D000C91A1C240B464840E341C01A424012231A
:1055E000D841101A41400822D041081A70BD00006D
:1055F000EFBEADDE10B5044600F004F8606800F0C0
:10560000D3FB10BD70B505460C35046908E066682B
:10561000A068241F00F05CFA204600F0C5FB344669
:10562000AC42F4D170BDF8B50446406800F0BCFB54
:10563000A1680126491C30468840A1600090C00046
:1056400000F0BAFB6060002803D0002025460C352E
:1056500009E00020C043F8BDC10062680B1DD550B1
:105660006268401C5550227A314691408142F3D8FD
:1056700022696D602D600DE0171F5668386800992B
:1056800001F09AFD6068C90041183A1D204600F0FB
:105690008DF93246AA42EFD10020F8BDFFB581B0A6
:1056A0001F460E46FFF746FE002813D13468251F1B
:1056B0002868B84206D1284614300399FBF78CF8C5
:1056C000002804D07068A04204D06468EFE7284640
:1056D00005B0F0BD0020FBE770B504460D46084656
:1056E000FAF791FF0B490A6801462846FFF7E0FEEA
:1056F000237A01219940491E01406268C90051186E
:1057000003462A462046FFF7C9FF002800D0C0689C
:1057100070BD00006400002070B5044600202060C9
:105720000320A060402000F047FB6060002806D006
:1057300020460C30206100210123E06009E00020B8
:10574000C04370BDCA006568161DA8516568491C34
:10575000A850257A1A46AA408A42F3D8002070BD84
:10576000FFB50546027A012401682046904081B0C9
:105770001F46814204D32846FFF755FF002840D139
:105780000298FAF740FF20490A6801460298FFF79D
:105790008FFE0646287A33468440641E344068688B
:1057A000E1004018009001462846029AFFF776FF74
:1057B000040004D0E06800F08BF9E7601EE0029876
:1057C000FAF721FF1521C8421BD2153000F0F4FA78
:1057D000040016D0266003982061204614300299F8
:1057E000FAF7EDFE201DA060E7606060221D2846EC
:1057F000009900F0DBF82868401C2860002005B004
:10580000F0BD0020C043FAE7640000200020401CE7
:10581000C0B20A28FBD3704710B50C4C01224021BE
:105820002046FDF7D6FAFFF7F1FF0122802120463E
:10583000FDF7CFFAFFF7EAFF002280212046FDF7AF
:10584000C8FABDE81040FFF7E1BF0000000C0140BE
:1058500070B500240F4E25466006040E01228021FB
:105860003046FDF7B6FAFFF7D1FF40213046FDF78D
:10587000A3FA08B1641CE4B2002280213046FDF78F
:10588000A8FAFFF7C3FF6D1CEDB2082DE4D3204644
:1058900070BD0000000C014070B5154E0546002497
:1058A000280601D5012200E0002240213046FDF704
:1058B00090FAFFF7ABFF012280213046FDF789FA0D
:1058C000FFF7A4FF002280213046FDF782FA072C63
:1058D00004D1012240213046FDF77BFA6806050E0F
:1058E000FFF794FF641CE4B2082CD9D370BD00000C
:1058F000000C014010B50E4C012240212046FDF75E
:1059000068FA012280212046FDF763FAFFF77EFF47
:10591000002240212046FDF75CFAFFF777FF0022C6
:1059200080212046FDF755FABDE81040FFF76EBF15
:10593000000C014010B50A4C002240212046FDF722
:1059400048FA012280212046FDF743FAFFF75EFF67
:1059500020460122BDE810404021FDF73ABA000080
:10596000000C014070B5104D012240212846FDF782
:1059700030FAFFF74BFF012280212846FDF729FA74
:10598000FFF744FF40212846FDF716FA08B101242D
:1059900000E00024002280212846FDF71AFAFFF7D4
:1059A00035FF204670BD0000000C014070B5154663
:1059B0000C460646FFF7BEFC002806D030462946B6
:1059C0000C3000F086FD656003E02946206800F099
:1059D00080FD256070BD70B5182000F0EDF9040061
:1059E0000ED0012020700025E56060600820A060D6
:1059F000202000F0E1F92061002802D020466561F6
:105A000070BD204600F0D0F9002070BD70B5104E7A
:105A10000D0005D0002817D00178012914D101E02C
:105A2000304670BDA8420FD001220446114600F056
:105A300011F8002808D0E168206989004550E06825
:105A4000401CE060002070BD284600F035F8E7E714
:105A5000FFFFFFFFF8B50546C06817464318AA6860
:105A60002869934219D9064654185000844200D838
:105A70000446A00000F0A0F900280ED0AC60286118
:105A8000002F0BD0E9680023009132461946FFF73A
:105A900045FC304600F088F92869F8BD3046F8BD6D
:105AA00010B5002807D041684A1C04D0491E416047
:105AB00001D100F019F810BD10B5002807D04168D9
:105AC0004A1C04D0491E416001D100F00DF810BD00
:105AD00010B5002807D041684A1C04D0491E416017
